:1000000000100010ED000000E9000000E500000015
:1000100000000000000000000000000011EFFFEFF2
:10002000000000000000000000000000E1000000EF
:100030000000000000000000DD000000D90000000A
:1000400055010000D500000000000000D5000000B0
:10005000D5000000D50000000000000000000000F6
:1000600065010000C9010000D5000000D5000000B6
:10007000D5000000D500000000000000D500000001
:100080000000000000000000000000000000000070
:100090000000000000000000000000000000000060
:1000A000D5000000D5000000D5000000D5000000FC
:1000B000D5000000D5000000D5000000D5000000EC
:1000C000C00500000000001000000000000000104B
:1000D0009C010000FEE7C046FEE7C046FEE7C046C2
:1000E000FEE7C046FEE7C046FEE7C04670B5164ACA
:1000F000164DAA420ED2146850680C32131F1968AC
:1001000000230029F5D01E591E5004339942FAD815
:10011000AA42F0D30E4B9A4212D2D1430024C918FE
:10012000C9080131C900511850681568002300281A
:1001300003D05C5104339842FBD808329142F3D18A
:1001400000F03AFAFEE7C046C0000000CC00000014
:10015000D4000000024B9A6AD20700D55B69704751
:10016000008005408022174B1202996911421ED16E
:100170009A69D20518D5C0225968D2000A40802158
:1001800089008A4215D08021C9008A420CD0002AF9
:100190000AD15A689204920F012A10D0022A0CD078
:1001A0000122084B1A6401E003221A6470475A6066
:1001B000FCE75A6C01221A64F8E71B6DF0E7DB6C70
:1001C000EEE7C04600000540A12370B5094E0A4D78
:1001D00032889B00EA5200F031F9040000F07EF909
:1001E0000222F423641080102018A0303080EA50DE
:1001F00070BDC04600000010004000508E218020DD
:10020000F0B54F4646467C4B89005A58C0B48243ED
:100210005A50002203217F381A645A6458641967BF
:100220005A67586701329960DC687348012122429D
:10023000FAD08024714A0359C22613430351704BEC
:10024000B60099469A5940234D461A43AA51E022D6
:100250006C4F5200BD582B43BB50002380256A4A87
:10026000ED041361BA691202120A2A43BA61674D9A
:10027000674A684F516117609161D162116351649F
:100280009164956553609360D3601361D361136289
:100290005362936253639363D3631364136553652B
:1002A0005D4AF4251760842751619164536093601F
:1002B000D36013619361D361136253629362D3621B
:1002C000136353639363D36313645364D3641365F9
:1002D00053659365D365136653669366D366136758
:1002E00053679367D167D3510437D35153510437C0
:1002F0000435D351535104370435D3515351043786
:100300000435D351AC460437D3510437D3510437A5
:10031000D3510437D3510437D3510437D351043761
:10032000D1510437D3510437D3510437D351043753
:10033000D3510437D3510437D3510437D351043741
:10034000D3510437D3510437D3510437D351043731
:10035000D3510437D1510437D3510437D351043723
:100360001351D35153510435535102592B4D2A4344
:10037000025142682A4CA0251440446064464268F9
:10038000AD00224342608020264A80021060042093
:10039000254C90805453013DFF3D5453234C13533F
:1003A000013CFF3C13530334FF341353013CFF3C27
:1003B00013537D34FF34115180246401A446C124B9
:1003C0006546A40015519151194E08341651043454
:1003D0001151C521174C89005450A0240221E4007A
:1003E0001151154C105148469165D151FF31FF31E3
:1003F00001609380FEE7C04600800440C000040016
:1004000000E100E000C0004000400440FFFF0000A9
:1004100034010010999E3600040000100001040011
:10042000FFFEFFFF00400050FF03000082020000BB
:1004300001100000021000000405000070B52649FC
:100440000A6800204C6D14444C650D6D661B8C6D64
:1004500009D84E6509252540EE087540ED0364086E
:100460002C43A4B28C65012323408C6814448C6017
:100470004D68661BCC6802D88E60E443CC604D6941
:100480002C4302D08C691C4301D10C6920440C6AB6
:1004900014440C62CD69661B4C6A02D80E62E443B8
:1004A0004C62CD6A2C4302D00C6B1C4301D18C6A88
:1004B00020448C6B14448C634D6B661BCC6B02D850
:1004C0008E63E443CC634D6C2C4302D08C6C1C4394
:1004D00001D10C6C204470BD34010010F0B53549D9
:1004E0000A6800201F2318248D6815448D604E680B
:1004F000AF1BCD6803D88F6001351D40CD604E69BC
:10050000364304D00D442D570E69754328443431C9
:100510008D6815448D604E68AF1BCD6803D88F6021
:1005200001351D40CD604E69364304D00D442D5732
:100530000E697543284434318D6815448D604E68CA
:10054000AF1BCD6803D88F6001351D40CD604E696B
:10055000364304D00D442D570E6975432844343179
:100560008D6815448D604E68AF1BCD6803D88F60D1
:1005700001351D40CD604E69364304D00D442D57E2
:100580000E697543284434318D6815448D604E687A
:10059000AF1BCD6803D88F6001351D40CD604E691B
:1005A000364304D00D442D570E697543284400117D
:1005B000F0BD00000400001010B5FFF71FFE10BDD5
:04000003000000ED0C
:00000001FF
