:1000000000040010ED000000E9000000E500000021
:1000100000000000000000000000000011FBFFEFE6
:10002000000000000000000000000000E1000000EF
:100030000000000000000000DD000000D90000000A
:10004000D5000000D500000000000000D500000031
:10005000D5000000D50000000000000000000000F6
:1000600071010000BD040000D5000000D5000000B3
:10007000D5000000D500000000000000D500000001
:100080000000000000000000000000000000000070
:100090000000000000000000000000000000000060
:1000A000D5000000D5000000D5000000D5000000FC
:1000B000D5000000D5000000D5000000D5000000EC
:1000C00058090000000000100000000000000010AF
:1000D000A0010000FEE7C046FEE7C046FEE7C046BE
:1000E000FEE7C046FEE7C046FEE7C04670B5164ACA
:1000F000164DAA420ED2146850680C32131F1968AC
:1001000000230029F5D01E591E5004339942FAD815
:10011000AA42F0D30E4B9A4212D2D1430024C918FE
:10012000C9080131C900511850681568002300281A
:1001300003D05C5104339842FBD808329142F3D18A
:1001400000F0E6FBFEE7C046C0000000CC00000067
:10015000D4000000FE2807D0FF2801D000207047FF
:10016000012301200B70FAE7002301200B70F6E752
:10017000802230B5C34B1202996983B0114224D159
:100180009A69D2051DD5C0225968D2000A40802143
:1001900089008A422AD08021C9008A4217D0002AC9
:1001A0000FD15A689204920F012A5AD00021022AD4
:1001B0004FD00022B44B5A701970B24B01321A64FE
:1001C00001E003221A6403B030BD5A60FBE7AE4B76
:1001D0001A78502A49D098786B46D91DFFF7BAFF94
:1001E00000282FD10322A74B1A64ECE7596CA64BC9
:1001F000C8B25A78002A30D0012AF3D11C789B78F3
:10020000502C4ED09F2B35D9A92B3DD81800A038A3
:1002100040101A425FD0F02302001B0109029B4CE0
:1002200021321940D300E35C1943D200A15034229B
:100230001300974A43435143E31859600122914BFD
:100240001A64C0E76B46DA798E4B5A6401221A644D
:10025000B9E7196D4908C9B2ABE7013298705A7015
:10026000ECE7D96C4908C9B2A3E79B780122FE2BC1
:10027000EAD2B7E71F2259091A4034234B43834976
:10028000CB189B181876D9E7AE2B30D9AF2B7AD084
:10029000FF2BD3D1002800D18CE07E4A7B4B1A6023
:1002A000CCE7062B00D189E030D8022B00D18DE0BD
:1002B00049D9042B00D1A2E000D993E0F0236020BB
:1002C000754A1B0109021940135C0B437349135211
:1002D0004B43D361B2E702006C4C2132D300E558A6
:1002E000F0231B012B40FF25294019439DE70F22D6
:1002F0001C006649893BDB001040CB182532586052
:100300001300AA3C6343CB18186197E70A2B00D16E
:100310009DE02BD8082B00D18BE07CD80123010075
:100320005D4A1940516141081940D1628108194064
:100330005164C10819409161010940091940034005
:10034000116393647AE7002B00D18EE0012B00D07B
:1003500048E7F0235C20504A1B0109021940135C56
:100360000B434E4913524B43536067E70F2B00D8A2
:1003700064E7FF2B00D035E7002800D096E0484A1C
:10038000454B1A605AE7AE3B19001C003F4A8143B7
:10039000516141088C4394641C0081088C43D467EC
:1003A0001C00C1088C43B0210009545083433431F0
:1003B000535043E73A4A354B1A603FE71F23364A0A
:1003C0001840384BD0645843106537E76021F0235C
:1003D000314A1B01545A23401843304B5052584362
:1003E000D0612BE7F02364202B4A1B01090219403E
:1003F000135C0B43294913524B4353631EE764219B
:10040000F023254A1B01545A23401843234B5052D2
:100410005843506312E71F231F4A18404333D052FA
:100420004000443B034001331F495B005B5A936229
:1004300004E71F23184A18403F33D0524000403B86
:100440000340013318495B005B5A1361F6E61F2332
:10045000114A18404733D0524000483B0340013313
:1004600011495B005B5A1364E8E65C21F0230A4AF9
:100470001B01545A23401843084B505258435060B4
:10048000DCE6C04600000540000000100800001037
:100490001BB7000000093D0038010010B0710B00CF
:1004A000999E360060E3160018090000014A024BCD
:1004B0001A60C3E600093D0038010010A12370B5A1
:1004C000094E0A4DB2889B00EA5200F063F904001D
:1004D00000F0B0F90222F423A410C010201850300C
:1004E000B080EA5070BDC0460000001000400050CF
:1004F0008E218020F0B55F4656464D464446924BCD
:1005000089005A58F0B482435A50002101227D38A4
:10051000196459645A64186759675A679A60DC68A5
:10052000894801212242FAD08025884A4359402631
:1005300013434351C2239B009C46854A844CD358A5
:1005400062463343A350834C493AFF3AA35880276D
:100550003343A350804BFF04994600234A4613615E
:10056000A2691202120A3A437C4FA261B8467C4A41
:1005700017607C4F5161976547469161D162116365
:100580005164916453609360D3601361D3611362CB
:100590005362936253639363D36313641365536528
:1005A000714A176084275161916453609360D360EE
:1005B00013619361D361136253629362D3621363D5
:1005C00053639363D36313645364D36413655365B4
:1005D0009365D365136653669366D3661367536753
:1005E0009367D167D3510437D3510437D3510437BC
:1005F000D3510437D3510437D3510437D35104377F
:10060000D351BA460437D3510437D3510437D351A9
:100610000437D1510437D3510437D3510437D35160
:100620000437D3510437D3510437D3510437D3514E
:100630000437D3510437D3510437D3510437D3513E
:100640000437D3510437D1510437D3510437D35130
:100650000437D3510437D3510437D3510437D3511E
:1006600004375351B846D3510437D35142593F4F01
:100670003A4342514268FF27B24342604268164300
:10068000466056463A4A5361D66402361665E669B4
:100690003602360AE661266ABE43B246052657464A
:1006A0003E43266280244E46E4007464F460812652
:1006B00002243602146096604246254E326042594A
:1006C0002C4E3243425145682B4AA0262A404546CB
:1006D00042604268B6002A4342608020274A800276
:1006E00010600420264D90809553013EFF3E9553A7
:1006F0008026244D76015353013DFF3D535303356E
:10070000FF355353013DFF3D53537D35FF35515167
:100710000435565165461C4E515104355651043529
:100720005151C521194D89005550ED31FF315450BB
:1007300017495050F0219465054854501131FF314C
:1007400001609380FEE7C046008004404000040042
:1007500000E100E000C0004000400440999E3600E7
:1007600038010010FFFF0000080000102000040006
:100770000000054000010400FFFEFFFF00400050A4
:10078000FF010000820200000110000002100000C2
:100790000405000070B526490A6800204C6D144419
:1007A0004C650D6D661B8C6D09D84E65092525407D
:1007B000EE087540ED0364082C43A4B28C65012358
:1007C00023408C6814448C604D68661BCC6802D84A
:1007D0008E60E443CC604D692C4302D08C691C438D
:1007E00001D10C6920440C6A14440C62CD69661B6B
:1007F0004C6A02D80E62E4434C62CD6A2C4302D0AC
:100800000C6B1C4301D18C6A20448C6B14448C63A8
:100810004D6B661BCC6B02D88E63E443CC634D6C8E
:100820002C4302D08C6C1C4301D10C6C204470BD55
:1008300038010010F0B535490A6800201F2318243C
:100840008D6815448D604E68AF1BCD6803D88F60EE
:1008500001351D40CD604E69F64304D00D442D573F
:100860000E697543284434318D6815448D604E6897
:10087000AF1BCD6803D88F6001351D40CD604E6938
:10088000F64304D00D442D570E6975432844343186
:100890008D6815448D604E68AF1BCD6803D88F609E
:1008A00001351D40CD604E69F64304D00D442D57EF
:1008B0000E697543284434318D6815448D604E6847
:1008C000AF1BCD6803D88F6001351D40CD604E69E8
:1008D000F64304D00D442D570E6975432844343136
:1008E0008D6815448D604E68AF1BCD6803D88F604E
:1008F00001351D40CD604E69F64304D00D442D579F
:100900000E69754328440011F0BD00000800001076
:1009100010B5FFF7EDFD10BD000000000100010063
:1009200002000200030004000500060007000800A2
:1009300009000B000D001000130017001B00200021
:1009400026002D00360040004C005A006B0080004D
:080950009800B400D600FF007E
:04000003000000ED0C
:00000001FF
