:1000000000040010ED000000E9000000E500000021
:1000100000000000000000000000000011FBFFEFE6
:10002000000000000000000000000000E1000000EF
:100030000000000000000000DD000000D90000000A
:10004000D5000000D500000000000000D500000031
:10005000D5000000D50000000000000000000000F6
:100060005501000061030000D5000000D50000002C
:10007000D5000000D500000000000000D500000001
:100080000000000000000000000000000000000070
:100090000000000000000000000000000000000060
:1000A000D5000000D5000000D5000000D5000000FC
:1000B000D5000000D5000000D5000000D5000000EC
:1000C00018060000000000100000000000000010F2
:1000D000A0010000FEE7C046FEE7C046FEE7C046BE
:1000E000FEE7C046FEE7C046FEE7C04670B5164ACA
:1000F000164DAA420ED2146850680C32131F1968AC
:1001000000230029F5D01E591E5004339942FAD815
:10011000AA42F0D30E4B9A4212D2D1430024C918FE
:10012000C9080131C900511850681568002300281A
:1001300003D05C5104339842FBD808328A42F3D191
:1001400000F046FAFEE7C046C0000000CC00000008
:10015000D400000080217A4B09029A6970B50A40E8
:1001600029D19969C90523D5C0215868C900014022
:1001700080208000814220D08020C000814211D0A8
:10018000002915D15A689204920F012A3FD000210C
:10019000022A40D000226B4B5A701970684B013212
:1001A0001A6407E067498978FE2929D0FF2926D0FB
:1001B00003221A6470BD5960FCE75A6C6148D1B2E1
:1001C0004278002A21D0012AF2D18378052B00D170
:1001D00096E024D9082B00D199E033D90A2B67D0B7
:1001E00059D3FF2B05D1002900D1A4E05649574B24
:1001F0001960013242700122514B1A64DAE7012280
:100200004F4B5A6401221A64D4E78170F1E7D96C2C
:100210004908C9B2BEE7196D4908C9B2BAE7022B4D
:100220005AD028D8002B50D0012BE2D10F235C25C7
:10023000464C1940635D09021943454B61535943CC
:100240006160D6E7062B53D0072BD2D101230D1CBA
:100250003E4C1D4065614D081D40E5628D081D4006
:100260006564CD081D40A5610D0949091D400B407D
:100270002563A364BDE7032B56D0042BB9D16425B5
:10028000F023324C1B01665B33401943304B615302
:1002900059436163ADE71F2362252C4C0B40635328
:1002A0000F230B409B002B4902335B5AA362A0E74C
:1002B0001F236625254C0B4063530F230B409B00E7
:1002C000244902335B5A236493E75C25F0231F4CD7
:1002D0001B01665B3340AFE76025F0231B4C1B011D
:1002E000665B334019431A4B61535943E16180E720
:1002F0001F23164C1940184BE1645943216578E7D8
:100300000F236425114C19400902635DBDE71F23CB
:100310005E250E4C0B4063530F230B409B000D4991
:1003200002335B5A236164E70F236025074C1940B1
:100330000902635DD6E70949044B196059E7C046D5
:10034000000005400000001000093D0038010010C9
:10035000B0710B00D805000060E31600999E3600CE
:1003600038B5A123064D074CAA889B00E25200F045
:10037000DFF80222F4238010A880E25038BDC04686
:100380000000001000400050F0B55F4656464D4654
:100390004446F0B480255549554A4B5940261343ED
:1003A0004B51544B544C9B46C2239B009C465A468F
:1003B0005846D358624633438350493AFF3AA358CC
:1003C00080203343A35000224C4BC0041A6198464E
:1003D000A3694B4F1B021B0A0343A36149484A4BC5
:1003E000186001205A6058619861D8621863586497
:1003F00098649A60DA601A61DA611A625A629A62E3
:100400005A639A63DA631A641A655A659F654B5991
:100410003E4F3B434B514B68FF27B3434B604B6808
:10042000B9461E43A0234E60394E7261F364E369FE
:100430001B021B0AE361236ABB439A460523574606
:100440003B43236280234446DB006364E3608123F3
:1004500002241B023460B36080235E465B00984632
:1004600033604B592B4E1E434E514B682A4D4E461E
:100470001D404D6045464B682B434B608021274B08
:100480008902196004218135FF3599805E53013D51
:10049000FF3D5E538026224D76015A53013DFF3DBC
:1004A0005A530335FF355A53013DFF3D5A537D35AD
:1004B000FF35585104355E5165461A4E5851043582
:1004C0005E5104355851C520174D80001D50ED3048
:1004D000FF301C50154819505846EC319C655C5053
:1004E0001131FF3101609A80FEE7C0460080044070
:1004F0004000040000E100E000C000400040044073
:10050000FFFF0000999E3600380100102000040013
:100510000000054000010400FFFEFFFF0040005006
:10052000820200000110000002100000040500001B
:1005300070B526490A6800204C6D14444C650D6D59
:10054000661B8C6D09D84E6509252540EE0875405F
:10055000ED0364082C43A4B28C65012323408C680E
:1005600014448C604D68661BCC6802D88E60E443EE
:10057000CC604D692C4302D08C691C4301D10C69BD
:1005800020440C6A14440C62CD69661B4C6A02D884
:100590000E62E4434C62CD6A2C4302D00C6B1C43C8
:1005A00001D18C6A20448C6B14448C634D6B661BA8
:1005B000CC6B02D88E63E443CC634D6C2C4302D0E9
:1005C0008C6C1C4301D10C6C204470BD38010010B0
:1005D00008B5FFF7D9FE08BD0000000001000100CA
:1005E00002000200030004000500060007000800E6
:1005F00009000B000D001000130017001B00200065
:1006000026002D00360040004C005A006B00800090
:080610009800B400D600FF00C1
:04000003000000ED0C
:00000001FF
