:1000000000040010ED000000E9000000E500000021
:1000100000000000000000000000000011FBFFEFE6
:10002000000000000000000000000000E1000000EF
:100030000000000000000000DD000000D90000000A
:1000400055010000D500000000000000D5000000B0
:10005000D5000000D50000000000000000000000F6
:1000600099030000FD030000D5000000D50000004A
:10007000D5000000D500000000000000D500000001
:100080000000000000000000000000000000000070
:100090000000000000000000000000000000000060
:1000A000D5000000D5000000D5000000D5000000FC
:1000B000D5000000D5000000D5000000D5000000EC
:1000C000C808000000000010040000000400001038
:1000D0009C010000FEE7C046FEE7C046FEE7C046C2
:1000E000FEE7C046FEE7C046FEE7C04670B5164ACA
:1000F000164DAA420ED2146850680C32131F1968AC
:1001000000230029F5D01E591E5004339942FAD815
:10011000AA42F0D30E4B9A4212D2D1430024C918FE
:10012000C9080131C900511850681568002300281A
:1001300003D05C5104339842FBD808329142F3D18A
:1001400000F088FBFEE7C046C0000000CC000000C5
:10015000D40000000122874B30B5996A0A4202D0D0
:100160005B69D90300D530BD99B2090AFF2927D0B0
:1001700081480078502826D05128F4D1C8B2DCB28A
:100180009F2900D8B9E0A92900D9C1E00400A03C0A
:100190006410024200D1D2E0F022210012011B02C1
:1001A000764821311340CA00825C1343C900435092
:1001B00034210A00724962434B4382185360D2E7EC
:1001C0006D4A1370CFE7C9B2DAB20A29CBD86D48AD
:1001D000890041588F461F236B491A404333CA5246
:1001E0005200443B13400133684A5B009B5A8B62C8
:1001F000B9E71F2364491A403F33CA525200403BBB
:1002000013400133614A5B009B5A0B61ABE701214C
:1002100008005D4B1040586150080840D8629008B3
:1002200008405864D00808409861100952090840F5
:1002300011401863996496E71F2353491A40544BA1
:10024000CA645A430A658EE7F02264204E491201BF
:100250001B0213400A5C13434E4A0B5253434B6339
:1002600081E76420F02348491B010C5A23401A43BC
:10027000484B0A525A434A6375E7F02260204249CC
:1002800012011B0213400A5C1343424A0B525343B0
:10029000CB6168E76020F0233B491B010C5A2340E7
:1002A0001A433C4B0A525A43CA615CE7F0225C2075
:1002B000354912011B0213400A5C1343354A0B52A5
:1002C00053434B604FE75C20F0232F491B010C5A2E
:1002D00023401A432F4B0A525A434A6043E71F23D5
:1002E00029491A404733CA525200483B1340013350
:1002F000264A5B009B5A0B6435E734221F234109D1
:100300004A43034010001D4A1018C01804762AE71B
:10031000AE2820D9AF2800D025E7184B22405A61DB
:10032000022222409A6404222240DA670822B02185
:1003300022405A5010221440D4329C5013E721001E
:100340000E482131CA008558F02212012A40FF25AB
:100350002B4013432AE703000F22AA3B1440253207
:10036000534306498938C0000818CB1844601C6103
:10037000F9E6C046008005400000001008000010AB
:100380001BB700005C08000038010010880800005E
:1003900060E31600B0710B008022174B12029969BE
:1003A00011421ED19A69D20518D5C0225968D200CF
:1003B0000A40802189008A4215D08021C9008A42E2
:1003C0000CD0002A0AD15A689204920F012A10D048
:1003D000022A0CD00122084B1A6401E003221A649D
:1003E00070475A60FCE75A6C01221A64F8E71B6DEB
:1003F000F0E7DB6CEEE7C04600000540A12370B5D6
:10040000094E0A4D32889B00EA5200F065F904005B
:1004100000F0B2F90222F423641080102018A030FA
:100420003080EA5070BDC04604000010004000500B
:100430008E218020F0B54746934B89005A5880B4EE
:1004400082435A50002203217F381A645A64586448
:1004500019675A67586701329960D8688A4C012138
:100460000242FAD08026894AA359C2201343A351DD
:100470004023874D80002A5880271A432A50E022C3
:10048000844852008558FF042B4383500023824D3B
:100490002B6182691202120A3A43804F8261B84688
:1004A0007F4A17607F4F5360976547469360D360DC
:1004B000136151619161D361136253629362D1629E
:1004C000116353639363D36313645164916413653D
:1004D0005365754A1760842753609360D360136136
:1004E00051619361D361136253629362D362136368
:1004F00053639363D363136453649164D364136548
:1005000053659365D365136653669366D366136725
:1005100053679367D167D3510437D3510437D3510D
:100520000437D3510437D3510437D3510437D3514F
:100530000437D3510437D3510437D3510437D3513F
:100540000437D1510437D3510437D3510437D35131
:100550000437D3510437D3510437D3510437D3511F
:100560000437D3510437D3510437D3510437D3510F
:100570000437D3510437D1510437D3510437D35101
:100580000437D3510437D3510437D3510437D351EF
:1005900004379351D3510437D351A259434F3A43AF
:1005A000A25162688A43626062680A436260A02462
:1005B000C268E4041202120A2243FF24C2600269E4
:1005C000A243026104693A4A224080246402224321
:1005D00002616B64EB62EB60364B196001310D0018
:1005E0009A68344C954302202A1EF8D1F023012149
:1005F00080261B05264DA361234BE16029609C5991
:100600002D4F3C439C515E682C4CA02734408026E3
:100610005C605C68760034435C608024284BA402F4
:100620001C600424274EBF009C80DE53013FFF3F27
:10063000DE538027244E7F019A53013EFF3E9A539A
:100640000336FF369A53013EFF3E9A537D36FF36FE
:10065000995104369F5104361C4F995104369F51CD
:1006600004369951C5211A4E89005E50ED31FF3193
:10067000585018495C50F021986558501131FF319D
:1006800029609A80FEE7C04600800440C000040054
:1006900000E100E000C0004000400440999E3600A8
:1006A00038010010FFFF000008000010800804005F
:1006B000FFFF00FF0080054000010400FFFEFFFF78
:1006C00000400050FF030000820200000110000003
:1006D000021000000405000070B526490A680020D9
:1006E0004C6D14444C650D6D661B8C6D09D84E65C0
:1006F00009252540EE087540ED0364082C43A4B29B
:100700008C65012323408C6814448C604D68661B03
:10071000CC6802D88E60E443CC604D692C4302D093
:100720008C691C4301D10C6920440C6A14440C628E
:10073000CD69661B4C6A02D80E62E4434C62CD6AF6
:100740002C4302D00C6B1C4301D18C6A20448C6B6F
:1007500014448C634D6B661BCC6B02D88E63E443F0
:10076000CC634D6C2C4302D08C6C1C4301D10C6CBF
:10077000204470BD38010010F0B535490A680020EA
:100780001F2318248D6815448D604E68AF1BCD68FB
:1007900003D88F6001351D40CD604E69364304D0CB
:1007A0000D442D570E697543284434318D68154426
:1007B0008D604E68AF1BCD6803D88F6001351D403A
:1007C000CD604E69364304D00D442D570E697543F4
:1007D000284434318D6815448D604E68AF1BCD6858
:1007E00003D88F6001351D40CD604E69364304D07B
:1007F0000D442D570E697543284434318D681544D6
:100800008D604E68AF1BCD6803D88F6001351D40E9
:10081000CD604E69364304D00D442D570E697543A3
:10082000284434318D6815448D604E68AF1BCD6807
:1008300003D88F6001351D40CD604E69364304D02A
:100840000D442D570E69754328440011F0BD00007A
:100850000800001010B5FFF7EBFD10BDC602000048
:10086000AC020000940200007A0200006202000064
:1008700048020000380200000E020000F2010000F1
:10088000D6010000DE0200000000000001000100AF
:100890000200020003000400050006000700080033
:1008A00009000B000D001000130017001B002000B2
:1008B00026002D00360040004C005A006B008000DE
:0808C0009800B400D600FF000F
:0408C80050FFFFFFDF
:04000003000000ED0C
:00000001FF
