:1000000000040010ED000000E9000000E500000021
:1000100000000000000000000000000011FBFFEFE6
:10002000000000000000000000000000E1000000EF
:100030000000000000000000DD000000D90000000A
:10004000D5000000D500000000000000D500000031
:10005000D5000000D50000000000000000000000F6
:100060005501000071040000D5000000D50000001B
:10007000D5000000D500000000000000D500000001
:100080000000000000000000000000000000000070
:100090000000000000000000000000000000000060
:1000A000D5000000D5000000D5000000D5000000FC
:1000B000D5000000D5000000D5000000D5000000EC
:1000C0000C090000000000100000000000000010FB
:1000D000A0010000FEE7C046FEE7C046FEE7C046BE
:1000E000FEE7C046FEE7C046FEE7C04670B5164ACA
:1000F000164DAA420ED2146850680C32131F1968AC
:1001000000230029F5D01E591E5004339942FAD815
:10011000AA42F0D30E4B9A4212D2D1430024C918FE
:10012000C9080131C900511850681568002300281A
:1001300003D05C5104339842FBD808329142F3D18A
:1001400000F0C0FBFEE7C046C0000000CC0000008D
:10015000D40000008022BC4B1202996930B51142D4
:1001600023D19A69D2051DD5C0225968D2000A4010
:10017000802189008A4223D08021C9008A4216D07A
:10018000002A0FD15A689204920F012A50D0002100
:10019000022A21D00022AD4B5A701970AA4B0132AD
:1001A0001A6401E003221A6430BD5A60FCE7A74BD1
:1001B0009B78FE2B0CD30122A34B5A641A64F3E7FD
:1001C000596CA24BC8B25A78002A2DD0012A07D008
:1001D00003229D4B1A64E7E7196D4908C9B2D9E7B4
:1001E0001C789B78502C3ED09F2B25D9A92B2DD83D
:1001F0001800A03840101A424FD0F02302001B0113
:100200000902934C21321940D300E35C1943D20018
:10021000A150342213008F4A43435143E3185960DD
:100220000122894B1A64BFE7013298705A70F7E7D0
:10023000D96C4908C9B2ADE71F2259091A403423C5
:100240004B438349CB189B181876E9E7AE2B30D97E
:10025000AF2B7AD0FF2BE3D1002800D188E07E4A73
:100260007B4B1A60DCE7062B00D185E030D8022BEF
:1002700000D189E049D9042B00D19EE000D98FE05C
:10028000F0236020754A1B0109021940135C0B43DF
:10029000734913524B43D361C2E702006C4C2132C5
:1002A000D300E558F0231B012B40FF2529401943BB
:1002B000ADE70F221C006649893BDB001040CB18DC
:1002C000253258601300AA3C6343CB181861A7E796
:1002D0000A2B00D199E02BD8082B00D187E078D8E1
:1002E000012301005D4A1940516141081940D16262
:1002F000810819405164C108194091610109400900
:1003000019400340116393648AE7002B00D18AE00F
:10031000012B00D05CE7F0235C20504A1B0109024E
:100320001940135C0B434E4913524B43536077E71C
:100330000F2B00D874E7FF2B00D049E7002800D02E
:100340007DE0484A454B1A606AE70122404B024073
:100350005A61022202409A6404220240DA670822AB
:10036000B02102405A5010221040D432985057E722
:100370003C4A374B1A6053E71F23384A18403A4B20
:10038000D064584310654BE76021F023334A1B01CA
:10039000545A23401843324B50525843D0613FE7E0
:1003A000F02364202D4A1B0109021940135C0B4302
:1003B0002B4913524B43536332E76421F023274AFE
:1003C0001B01545A23401843254B50525843506345
:1003D00026E71F23214A18404333D0524000443BB4
:1003E0000340013321495B005B5A936218E71F23E6
:1003F0001A4A18403F33D0524000403B034001337B
:100400001A495B005B5A13610AE71F23134A18401D
:100410004733D0524000483B0340013313495B004F
:100420005B5A1364FCE65C21F0230C4A1B01545A0E
:10043000234018430A4B505258435060F0E6064A96
:10044000064B1A60ECE6C0460000054000000010B4
:10045000080000101BB7000000093D003801001023
:10046000B0710B00999E360060E31600CC080000C6
:10047000A12370B5094E0A4DB2889B00EA5200F0E4
:1004800063F9040000F0B0F90222F4236410801034
:100490002018A030B080EA5070BDC04600000010A7
:1004A000004000508E218020F0B55F4656464D46F4
:1004B0004446924B89005A58F0B482435A50002265
:1004C00003217F381A645A64586419675A67586759
:1004D00001329960DC68894801212242FAD08025E6
:1004E000874A4359402613434351C2239B009C46ED
:1004F000844A844CD35862463343A350824C493AD1
:10050000FF3AA35880273343A350804BFF049946FA
:1005100000234A461361A2691202120A3A437C4F31
:10052000A261B8467B4A17607B4F51619765474689
:100530009161D16211635164916453609360D3609F
:100540001361D36113625362936253639363D36302
:10055000136413655365714A176084275161916470
:1005600053609360D36013619361D36113625362EC
:100570009362D362136353639363D36313645364CB
:10058000D364136553659365D365136653669366A9
:10059000D366136753679367D167D3510437D35139
:1005A0000437D3510437D3510437D3510437D351CF
:1005B0000437D3510437D351BA460437D3510437E3
:1005C000D3510437D3510437D1510437D3510437B1
:1005D000D3510437D3510437D3510437D35104379F
:1005E000D3510437D3510437D3510437D35104378F
:1005F000D3510437D3510437D3510437D151043781
:10060000D3510437D3510437D3510437D35104376E
:10061000D3510437D35104375351B846D35104371B
:10062000D35142593E4F3A4342514268FF27B243A9
:10063000426042681643466056463A4A5361D66461
:1006400002361665E6693602360AE661266ABE4358
:10065000B246052657463E43266280244E46E400B5
:100660007464F46081260224360214609660424667
:10067000244E326042592C4E3243425145682B4A37
:10068000A0262A40454642604268B6002A4342609E
:100690008020274A800210600420264D90809553C8
:1006A000013EFF3E95538026234D76015353013D75
:1006B000FF3D53530335FF355353013DFF3D535326
:1006C0007D35FF3551510435565165461B4E51510C
:1006D0000435565104355151C521194D89005550E5
:1006E000ED31FF31545017495050F02194650548C1
:1006F00054501131FF3101609380FEE700800440C7
:100700004000040000E100E000C000400040044060
:10071000999E360038010010FFFF0000080000100D
:10072000200004000000054000010400FFFEFFFF60
:1007300000400050FF030000820200000110000092
:10074000021000000405000070B526490A68002068
:100750004C6D14444C650D6D661B8C6D09D84E654F
:1007600009252540EE087540ED0364082C43A4B22A
:100770008C65012323408C6814448C604D68661B93
:10078000CC6802D88E60E443CC604D692C4302D023
:100790008C691C4301D10C6920440C6A14440C621E
:1007A000CD69661B4C6A02D80E62E4434C62CD6A86
:1007B0002C4302D00C6B1C4301D18C6A20448C6BFF
:1007C00014448C634D6B661BCC6B02D88E63E44380
:1007D000CC634D6C2C4302D08C6C1C4301D10C6C4F
:1007E000204470BD38010010F0B535490A6800207A
:1007F0001F2318248D6815448D604E68AF1BCD688B
:1008000003D88F6001351D40CD604E69364304D05A
:100810000D442D570E697543284434318D681544B5
:100820008D604E68AF1BCD6803D88F6001351D40C9
:10083000CD604E69364304D00D442D570E69754383
:10084000284434318D6815448D604E68AF1BCD68E7
:1008500003D88F6001351D40CD604E69364304D00A
:100860000D442D570E697543284434318D68154465
:100870008D604E68AF1BCD6803D88F6001351D4079
:10088000CD604E69364304D00D442D570E69754333
:10089000284434318D6815448D604E68AF1BCD6897
:1008A00003D88F6001351D40CD604E69364304D0BA
:1008B0000D442D570E69754328440011F0BD00000A
:1008C0000800001010B5FFF7EDFD10BD000000009E
:1008D0000100010002000200030004000500060000
:1008E0000700080009000B000D001000130017009E
:1008F0001B00200026002D00360040004C005A004E
:0C0900006B0080009800B400D600FF00DF
:04000003000000ED0C
:00000001FF
